:020000040800F2
:10000000D005002001010008AB1C0008711B00088E
:10001000A91C000855060008152200080000000071
:100020000000000000000000000000005B1D000850
:100030008F06000800000000591D00085D1D000823
:100040001B0100081B0100081B0100081B01000820
:100050001B0100081B0100081B0100081B01000810
:100060001B0100081B0100081B0100081B01000800
:100070001B010008590600081B0100081B010008AD
:100080001B0100081B0100081B0100081B010008E0
:100090001B0100081B0100081B0100081B010008D0
:1000A0001B0100081B0100081B0100081B010008C0
:1000B0001B0100081B010008F91D00081B010008B6
:1000C0001B0100081B0100081B0100081B010008A0
:1000D0001B0100081B0100081B0100081B01000890
:1000E0001B0100081B0100081B010008DFF80CD0F1
:1000F00000F09EFA00480047E5240008D0050020E3
:100100000648804706480047FEE7FEE7FEE7FEE7B1
:10011000FEE7FEE7FEE7FEE7FEE7FEE7B11D0008AB
:10012000ED000008202A04DB203A21FA02F0002129
:10013000704721FA02F3D040C2F1200291400843F7
:1001400019467047D2B201E000F8012B491EFBD2DC
:1001500070470022F6E710B513460A4604461946D2
:10016000FFF7F0FF204610BD2DE9FE4F804681EAE3
:100170000300C00F0C46009021F0004123F0004521
:10018000B8EB0200A94105D24046214690461C46E4
:100190000B46024623F00040104347D0270DC7F31B
:1001A0000A00C3F30A510290401A019040286BDA0A
:1001B000C3F3130040F4801B0098924620B1002343
:1001C000D2EB030A63EB0B0B01985946C0F14002D6
:1001D000504600F0AEF906460D4650465946019A83
:1001E00000F0B6F910EB08006141002487EA1152D3
:1001F00084EAE7731A4340D0009A62B3019A012A55
:100200004FEA075215DC001B61EB02014FF0004280
:1002100002EA0752CDE90042001C41F58011324646
:100220002B4600F0B6F903B0BDE8F08F40462146FA
:10023000F9E7001B61EB0201001C41F58013001877
:100240005B412018A2F5001747EB030140EAD57087
:10025000B6196D4111E06D084FEA360645EAC075E2
:100260004FEA0752001B61EB0201001C41F58011AF
:1002700049084FEA30000019514132462B4603B07D
:10028000BDE8F04F00F076B900980122400000234D
:10029000D0EB020263EBE073009821464FEAE07472
:1002A000B8EB000061EB0401E9E783F000435BE792
:1002B00081F0004158E72DE9FE4F81EA030404F084
:1002C000004421F0004100944FF0000B23F0004364
:1002D00050EA01045ED052EA03045BD0C3F30A542F
:1002E000C1F30A552C44A4F2F3340194A0FB025448
:1002F000C1F3130141F48011C3F3130343F48013DA
:1003000001FB024400FB034E840A970A44EA81542D
:1003100047EA8357A4FB076802958D0A05FB07850A
:100320004FEA932C04FB0C542705029D4FEA065814
:1003300047EA1637B5EB08056EEB070C870E920EF1
:1003400047EA811742EA8312A7FB0201B6EB0B01D1
:1003500064EB00042B0D43EA0C335E1844EB1C5095
:10036000DA465146E7FB0201C5F313044FEA0B33AB
:1003700043EA14534FEA0432019C43EA0603A4F112
:100380000C040294009CCDE900B400F002F903B023
:10039000BDE8F08F00200146F9E72DE9F04D81EA34
:1003A000030404F0004B21F0004514464FF0000A0E
:1003B00023F0004150EA050220D054EA01021DD08A
:1003C000C5F30A570246C5F31303C1F31300C1F383
:1003D0000A5640F4801543F48013A7EB0608101B5F
:1003E000D64608F2FD3873EB050002D308F1010888
:1003F00001E092185B41B8F1000F03DA00200146DA
:10040000BDE8F08D00204FF48011064684460EE0D2
:10041000171B73EB050705D3121B63EB050306439C
:100420004CEA010C49084FEA300092185B4150EA4F
:100430000107EDD152EA030012D082EA040083EAF8
:100440000501084305D0101BAB4106D20122002351
:1004500006E000224FF0004302E06FF0010253106B
:100460001AEB06004CEB085110EB0A0041EB0B01B4
:10047000BDE8F04D00F07EB870B521F000430343B5
:100480000CD0C1F30A550024D5EB040564EB04033A
:10049000D617AD1AB34102DB0020014670BD20180B
:1004A00041EB025170BD0EB5C10F80EAE070084407
:1004B000CA07002140F233438DE80E000A460B467E
:1004C00000F067F803B000BD70B5C1F30A5201F047
:1004D00000450024C1F3130140F2FF3341F48011C1
:1004E0009A4201DA002070BD40F233439A42A2F2F0
:1004F000334203DC5242FFF715FE00E090402C43EC
:10050000F1D0404270BD30B50B460146002020229C
:10051000012409E021FA02F59D4205D303FA02F510
:10052000491B04FA02F52844151EA2F10102F1DC70
:1005300030BD202A04DB203A00FA02F10020704787
:100540009140C2F1200320FA03F319439040704711
:10055000202A06DBCB17203A41FA02F043EAE07387
:1005600006E041FA02F3D040C2F120029140084374
:100570001946704710B5141E73F1000408DA401CC8
:1005800041F1000192185B411A4301D120F00100B2
:1005900010BD2DE9F04D92469B4611B1B1FA81F2A2
:1005A00002E0B0FA80F220329046FFF7C2FF044624
:1005B0000F4640EA0A0041EA0B0153465A460843F7
:1005C00013D0114653EA010019D0C8F14002504639
:1005D000FFF7A8FD05460E46504659464246FFF72E
:1005E000A8FF084305D0012004E020463946BDE8B5
:1005F000F08D0020054346EAE0762C4337430A9805
:100600006305E40AA0EB08000022FD0A44EA47540F
:100610000A3002D500200146E9E7010510196941B9
:10062000DDE9084500196941BDE8F04DA2E7000089
:10063000064C074D06E0E06840F0010394E807002F
:1006400098471034AC42F6D3FFF754FDE02500087C
:1006500000260008FEE70000014800F01BB800007B
:100660008801002030B590F840500124AC40C56BA3
:100670006C60046863604368102B036803D0996062
:100680000068C26030BD9A600068C16030BD7047CC
:10069000704700002DE9F05FC16B0C6801680B68C2
:1006A000D0F840C0042202FA0CF2494DDFF824A130
:1006B000494E4A4FDFF828B1DFF828E122422CD01A
:1006C0005A072AD50A68920603D40A6822F004025F
:1006D0000A600168A94201D1042219E0514501D103
:1006E000402215E0B14202D14FF4806210E0B942DD
:1006F00002D14FF480420BE0594502D14FF48022E1
:1007000006E0714502D14FF4800201E04FF08062B3
:100710002F4908394A60C16A3BE04FF0020808FAE5
:100720000CF818EA040F4FF000094FF0010235D021
:100730005FEA837832D50B689B0605D40B6823F0FB
:100740000A030B6080F821200168A94201D102222E
:1007500019E0514501D1202215E0B14202D14FF4F8
:10076000007210E0B94202D14FF400520BE059453B
:1007700002D14FF4003206E0714502D14FF400126D
:1007800001E04FF00072124908394A6080F8209069
:10079000816A00291AD0BDE8F05F0847082505FAEC
:1007A0000CF5254212D01B0710D50B6823F00E0361
:1007B0000B6090F84010C36B02FA01F1596082633C
:1007C00080F8212080F82090016BE2E7BDE8F09FDF
:1007D000080002401C000240300002404400024079
:1007E000580002406C00024030B528B308C81349D5
:1007F00014221944B1FBF2F18900C16310498163ED
:10080000022141771A6843F6F0718A43D0E9001457
:100810002143D0E902452C43214304692143446923
:10082000214384692143114319600021416301225E
:1008300042770177084630BD012030BDF8FFFDBF8B
:100840000000024070B5044690F820000025012801
:100850000CD0012084F8200094F821600020012EA3
:1008600006D084F820000225284670BD022070BD05
:10087000022684F82160A0632068066826F001063D
:1008800006602046FFF7EEFEE06A00282068016857
:1008900002D041F00E0106E021F004010160206861
:1008A000016841F00A0101602068016841F001011E
:1008B0000160D9E72DE9F84FDFF8B891002409F17C
:1008C000040A0AF1040B23460F270BF1040EC9E0BA
:1008D0000125A5402A40AA427DD1674ED1F804C027
:1008E000ACEB0608B44532D014DCBCF1030F3AD0AF
:1008F00009DCBCF1000F2AD0BCF1010F1CD0BCF107
:10090000020F31D11DE0BCF1110F17D0BCF1120F55
:100910002AD119E0B8F5881F19D006DCB8F5803F58
:1009200015D0B8F5801F1FD111E0B8F5001F0ED00B
:10093000B8F5041F18D10AE0CB6815E0CB681B1D81
:1009400012E0CB6808330FE0CB680C330CE08B6807
:100950002BB1012B4FF0080303D0456104E00423C1
:1009600002E0056100E00023FF2A01D8064601E00D
:1009700000F104064FEA840501D9A5F12005D6F857
:10098000008007FA05FC28EA0C0803FA05F548EA96
:100990000508C6F800804D68ED0062D5374DAE6998
:1009A00046F00106AE61AD6924F0030605F00105CD
:1009B0000095334D06EB050CDCF80850A607360F02
:1009C00007FA06F825EA0805DFF8B880404503D1A4
:1009D0004FF0000817E044E0DFF8AC80404502D15A
:1009E0004FF001080FE0DFF8A480404502D14FF03E
:1009F000020808E0DFF89880404502D14FF0030874
:100A000001E04FF0040808FA06F848EA0508CCF8B7
:100A100008804D68D9F80060ED034D4601D51643B6
:100A200000E096432E604D68DAF80060AD0355464D
:100A300001D5164300E096432E604D68DBF8006058
:100A4000ED025D4601D5164300E096432E604D68E9
:100A5000DEF80060AD02754601D5164300E096430E
:100A60002E60641C0D682A46E5407FF431AFBDE876
:100A7000F88F000000040140000011100010024037
:100A80000000014000080140000C0140001001403E
:100A900000140140014880687047000040000020B9
:100AA000024881680278114481607047400000204C
:100AB000074810B5016841F010010160032000F003
:100AC00075F8002000F006F800F024F8002010BDB2
:100AD0000020024070B50D4D04464FF47A7128781D
:100AE000B1FBF0F00A490968B1FBF0F000F0FEFA42
:100AF00048B9102C07D200222146501E00F036F8CB
:100B000000206C6070BD012070BD0000400000201E
:100B10004C0000200C4808B5816941F00101816159
:100B2000816901F001010091C16941F08051C16109
:100B3000C06900F0805000900448416821F0E061F5
:100B400041F08061416008BD00100240000001409A
:100B5000002809DB00F01F020121914040098000BC
:100B600000F1E020C0F8001170470000F0B40E4B17
:100B70001B680C46C3F30223C3F10705042D00D9FB
:100B80000425191D072901D2002300E0DB1E0126E0
:100B900006FA05F1491E214099409E40761E1640F6
:100BA0003143F0BC01F048BB0CED00E0064900F019
:100BB000070208684FF6FF03184040EA0220034A84
:100BC00010430860704700000CED00E00000FA05DB
:100BD000BFF34F8F05480168054A01F4E0611143F6
:100BE0000160BFF34F8F00BFFDE700000CED00E098
:100BF0000400FA052DE9F0470F46050061D0434E89
:100C0000306800F00700B84209D2306820F00700D1
:100C100038433060306800F00700B84251D128688E
:100C20003B4C810712D5400703D5606840F4E06073
:100C300060602878000703D5606840F46050606009
:100C40006068A96820F0F000084360602878C00759
:100C500028D06868012810D02168022810D08907A0
:100C600000292EDA616821F0030101436160FFF77A
:100C700011FF804641F288390DE021688903EFE7D2
:100C80008901EDE7FFF706FFA0EB0801494502D90E
:100C90000320BDE8F0876068696800F00C00B0EBE5
:100CA000810FEFD1306800F00700B8420BD93068EF
:100CB00020F0070038433060306800F00700B84289
:100CC00001D00120E5E72878400705D56068E9688C
:100CD00020F4E060084360602878000706D560686B
:100CE000296920F4605040EAC100606000F038F8E3
:100CF0006168084AC1F30311515CC84006490860A5
:100D000006480068FFF7E6FE0020C2E70020024028
:100D100000100240C82500084C00002044000020BC
:100D20000448054900684968044AC1F30221515C3E
:100D3000C84070474C00002000100240D825000831
:100D40000448054900684968044AC1F3C221515C5E
:100D5000C84070474C00002000100240D825000811
:100D600012A185B00FC98DE80F0014A0144A0068C5
:100D700004905168134801F00C03042B10D0082B89
:100D80000ED1C1F38343C9031DF803000AD551688E
:100D900004AAC1F34041515C0A4A5043B0FBF1F050
:100DA00005B0704708494843FAE70000020304050C
:100DB000060708090A0B0C0D0E0F101001020000A7
:100DC0000010024000127A0000093D002DE9F84FA2
:100DD000040070D02078C04DC00749D06868C0F3C7
:100DE0008100012807D06868C0F38100022809D17A
:100DF0006868C00306D52868800339D56068002874
:100E0000E7D035E06068B0F5803F0BD010B1B0F5A9
:100E1000A02F11D0286820F480302860286820F4A2
:100E2000802002E0286840F480302860606890B13B
:100E3000FFF730FE06460AE0286840F4802028606C
:100E4000F0E700BFFFF726FE801B642873D82868F0
:100E50008003F7D50CE0FFF71DFE064605E000BF56
:100E6000FFF718FE801B6428F0D828688003F7D4A9
:100E700020789A4E80074FF001094FF0000839D5CD
:100E8000686810F00C0F07D06868C0F38100022872
:100E900009D16868C00306D42868800714D5206982
:100EA000012808D110E02069B0B1C6F80090FFF722
:100EB000F1FD074605E00AE1FFF7ECFDC01B022843
:100EC000C4D828688007F7D52868616920F0F80041
:100ED00040EAC10028600DE0C6F80080FFF7DAFDA7
:100EE000074604E0FFF7D6FDC01B022823D8286878
:100EF0008007F7D4207800072CD57948A169D9B1AB
:100F0000C0F80090FFF7C6FD074604E0FFF7C2FDFA
:100F1000C01B02280FD8686A8007F7D571484FF4C4
:100F2000FA510068B0FBF1F0009000BF0098411E3C
:100F30000091FAD20EE080E0C0F80080FFF7AAFD31
:100F4000074604E0FFF7A6FDC01B022875D8686AB3
:100F50008007F7D42078400760D5E8690027C000F3
:100F600008D4E86940F08050E861E869012700F0A2
:100F7000805000905C480168C90513D4016883461D
:100F800041F480710160FFF785FD824606E000BFF5
:100F9000FFF780FDA0EB0A0064284ED8DBF80000C4
:100FA000C005F5D5E06801280AD008B1052813D09E
:100FB000286A20F001002862286A20F0040002E07C
:100FC000286A40F001002862E06841F2883B98B14D
:100FD000FFF760FD82460BE0286A40F004002862BB
:100FE000EEE700BFFFF756FDA0EB0A0159455AD8BE
:100FF000286A8007F6D50CE0FFF74CFD824605E035
:10100000FFF748FDA0EB0A0159454CD8286A800734
:10101000F6D41FB1E86920F08050E861E06988B338
:101020006968C1F38101022944D00228C6F86080B2
:1010300004D0FFF72FFD044638E034E0FFF72AFD27
:10104000074604E0FFF726FDC01B02282BD82868BE
:101050008001F7D4206AB0F5803F05D16868A168A7
:1010600020F4003008436860D4E908010843696847
:1010700021F4741108436860C6F86090FFF70AFD18
:10108000044606E025E000BFFFF704FD001B022830
:1010900009D828688001F7D51BE000BFFFF7FAFCEC
:1010A000001B022802D90320BDE8F88F28688001C0
:1010B000F4D40EE00128F7D06868226A00F4803189
:1010C000914204D1616A00F47010884201D001207D
:1010D000EAE70020E8E7000000100240000042427A
:1010E000800442424C0000200070004010B5401EB9
:1010F000B0F1807F01D3012010BD4FF0E02460618A
:101100000F21601701F098F80020A06107202061EE
:10111000002010BD7047704770B590F83C20012A40
:1011200019D0012400F83C4F0222427050F83C3C98
:101130005A689D6822F070060A684968324325F0B3
:10114000800529435A6050F83C2C9160447000217E
:101150000170084670BD022070BD10B5040003D0B8
:1011600094F83D0010B107E0012010BD002084F884
:101170003C00204600F00CF8022084F83D00211DC0
:10118000206800F03FFE012084F83D00002010BDE3
:1011900008B5114A01681148914208D1C16941F06E
:1011A0000201C161C06900F00200009008BD0C4A54
:1011B0009142FBD1C16941F00401C161C0690022C3
:1011C00000F00400009011461E20FFF7CFFCBDE8A0
:1011D00008401E20FFF7BCBC000400400010024085
:1011E000000800400168CA6842F00102CA60006855
:1011F000816801F00701062903D0016841F001016F
:101200000160002070470168CA6822F00102CA60CC
:101210000068016A41F21112114207D1016A92106D
:10122000114203D1016821F00101016000207047E3
:1012300070B5044690F83C00012817D0012584F8C9
:101240003C50022084F83D002068826822F077023A
:1012500022F47F4282600868502830D00DDC2028BC
:101260004DD005DC98B310283BD148E0022070BD7A
:10127000302844D0402834D139E0602828D0702864
:1012800006D0B0F5805F2CD0B0F5005F29D10AE020
:10129000CB68D1E90121206800F0F7FD2068816862
:1012A00041F0770109E0CB68D1E90121206800F025
:1012B000ECFD2068816841F48041816011E0CA68DA
:1012C0004968206800F096FE5021206807E016E08B
:1012D000CA684968206800F09EFE6021206800F01E
:1012E000DEFD84F83D50002084F83C0070BDCA68E3
:1012F0004968206800F07EFE40212068EFE7226800
:1013000001461046EBE72DE9F0410D46040003D0FD
:1013100094F83D0018B108E00120BDE8F0810020FC
:1013200084F83C00204600F03BF8022084F83D00A1
:101330002068816844F2070291438160211D206882
:1013400000F060FD226890689169166A2B68AF69A9
:10135000034340F20330814341EA0721A868EF6963
:1013600008434FF6FC418843E96840EA07200143FF
:1013700028692F6A000140EA0730084369686D69EF
:1013800026F0220646EA05152943936022689061FB
:1013900020680162012084F83D000020BDE70000C4
:1013A00000B585B000210091019102910391006880
:1013B000B0F1804F16D10C48C16941F00101C16103
:1013C000C16901F001010491816941F00401816169
:1013D0008069694600F004000490032000900348EF
:1013E000FFF768FA05B000BD001002400008014098
:1013F00010B50446006891B1042904D001220021EF
:1014000000F036FD206801225FF0040100F030FD9D
:101410002068016841F001010160002010BD012237
:101420000021F3E7704770B50446006801694FF08A
:101430000005C943890715D4C168C943890711D478
:10144000E91E01610120207720688069800720461D
:1014500002D0FFF7E7FF04E000F0BEF8204600F0FE
:1014600040F9257720680169C943490717D4C16845
:10147000C943490713D46FF00401016102202077AA
:101480002068806910F4407F204602D0FFF7CAFF31
:1014900004E000F0A1F8204600F023F92577206849
:1014A0000169C943090716D4C168C943090712D4A1
:1014B0006FF008010161042020772068C06980076F
:1014C000204602D0FFF7AEFF04E000F085F820468A
:1014D00000F007F9257720680169C943C90617D4C8
:1014E000C168C943C90613D46FF010010161082017
:1014F00020772068C06910F4407F204602D0FFF7B3
:1015000091FF04E000F068F8204600F0EAF8257743
:1015100020680169C943C90708D1C168C943C9071F
:1015200004D1891E0161204600F022F9206801697A
:10153000C943090609D4C168C943090605D46FF037
:10154000800101612046FFF7E5FD20680169C9437C
:10155000490609D4C168C943490605D46FF0400162
:101560000161204600F054F920680169C9438906E9
:101570000BD4C168C943890607D46FF0200101610B
:101580002046BDE87040FFF7C6BD70BD00B585B010
:101590000021009101910291039100680B4988425A
:1015A00011D10B48816941F004018161806969466C
:1015B00000F004000490C0200090022001900390ED
:1015C0000448FFF777F905B000BD000000040040B3
:1015D0000010024000080140704770B5044690F8C2
:1015E0003C000D4601280DD0012684F83C60022005
:1015F00084F83D0042B1042A18D0082A2AD00C2AC7
:101600004DD139E0022070BD206800F051FC206807
:10161000816941F0080181612068816921F004013C
:101620008161206881692A69114311E0206800F016
:1016300067FC2068816941F40061816120688169EB
:1016400021F480618161206881692A6941EA02216F
:10165000816124E0206800F07FFC2068C16941F0CE
:101660000801C1612068C16921F00401C1612068DD
:10167000C1692A69114311E0206800F099FC2068D3
:10168000C16941F40061C1612068C16921F48061D0
:10169000C1612068C1692A6941EA0221C16184F8F7
:1016A0003D60002084F83C0070BD10B5040003D0FC
:1016B00094F83D0010B107E0012010BD002084F82F
:1016C0003C00204600F00CF8022084F83D00211D6B
:1016D000206800F097FB012084F83D00002010BD39
:1016E0007047704710B504460068012200F0C0FB47
:1016F00009492068884203D1416C41F400414164AA
:101700002068816801F00701062903D0016841F0D3
:1017100001010160002010BD002C014010B50446FD
:101720000068002200F0A4FB104B41F21111206868
:101730008A10984209D1036A0B4206D1036A134208
:1017400003D1436C23F4004343642068036A0B42D3
:1017500006D1016A114203D1016821F00101016043
:10176000012084F83D00002010BD0000002C014045
:1017700010B51B49006886B0096888422DD1184809
:1017800080380068406A174C01B2184A2180164818
:10179000CDE90402164A0020CDE90202154A164B93
:1017A000CDE900020246206900F080FA0022134BC6
:1017B000FEF781FD0022124BFEF7EFFDC4E90E019A
:1017C0004FF47A7000F0E4FE032000900623B4F991
:1017D000002002210BA000F01FFD06B010BD00008C
:1017E000D4000020000000207B14AE47E17A843F43
:1017F00000003340000032400000314000408F4084
:10180000000028402563256425632563000000004F
:101810007047704770B5040004D094F83900002573
:1018200010B106E0012070BD84F83850204600F069
:1018300023F8242084F839002068C16821F400517D
:10184000C160204600F058FC2068016921F49041F5
:1018500001612068416921F02A0141612068C16865
:1018600041F40051C160E563202084F8390084F818
:101870003A00002070BD000070B586B00025064615
:10188000009501950295039500681E49884236D15E
:101890001D49C86940F48020C861C86900F48020EF
:1018A0000490886940F0080088618869174C00F04E
:1018B0000800049008150090022001900320039076
:1018C00069462046FEF7F6FFE014CDE900056946BB
:1018D00020460295FEF7EEFF0E4C0D48C4E90005C8
:1018E0008020C4E9025025616561A5612046E5615B
:1018F000FEF77AFF08B1FEF7CBFE7463666206B0AE
:1019000070BD00000048004000100240000C014083
:101910003000024088010020F8B5044690F83A00F3
:1019200020283CD1C1B3BAB394F83800012836D08E
:10193000012084F83800A162A2850025E5632220F9
:1019400084F83A00636B17489862636B1648D86254
:10195000636B16481863606B134645630846666BF5
:10196000216802463046091DFEF76CFF20680168B9
:101970004168009184F83850C16841F48071C160B9
:101980002068416941F0010141612068416941F0ED
:10199000400141610020F8BDFFE70120FBE7022084
:1019A000F9E7000085200008C12000083B2000085E
:1019B00038B539480178022966D1017B032963D102
:1019C0004078364C13281AD008DC04284FD005285C
:1019D00044D0112809D0122856D10BE0142819D070
:1019E000152811D018284FD123E000F02DFDC4E9AF
:1019F00008012CE000F028FDC4E90A0127E000F00E
:101A000023FDC4E90C0122E000F01EFDFEF75CFDA1
:101A100020611CE020488038FFF7E4FB1E480021CD
:101A2000C038FFF75FFE1C480421C038FFF75AFE9C
:101A30000DE019488038FFF7E6FB17480021C03851
:101A4000FFF76CFE14480421C038FFF767FE03233C
:101A50000622022112A000F0DFFB15E0032306227C
:101A600002210FA000F0D8FBFFF7B2F80CE000F065
:101A7000EBFCFEF729FD606103210246009106237D
:101A8000022109A000F0C8FBBDE8384002490D2240
:101A9000A1F14000FFF740BF5401002000000020EA
:101AA000256325632563000025632564256325637D
:101AB0000000000070472DE9F843044690F8390013
:101AC0001F4616460D46202850D1A5B19EB194F868
:101AD000380001284AD0012084F838004FF000086F
:101AE000C4F83C80212084F83900FEF7D3FFA68497
:101AF0008146E68426E00120BDE8F883E08C401EA4
:101B0000E084A0684B46B0F5805F4FF000024FF0D4
:101B100080012046009703D000F04AFBE8B90DE0B1
:101B200000F046FBC8B928882168C0F30800486067
:101B3000206908B16D1C05E0AD1C03E0216815F8B3
:101B4000010B4860E08C0028D8D14B460022402190
:101B50002046009700F02CFB08B10320CCE72020A2
:101B600084F8390084F838800020C5E70220C3E7F4
:101B7000FEE7000010B58CB024216846FEF7E9FAB4
:101B80000024124809944FF080410A94C0E90014DF
:101B90004FF6FF71C0E90241046184610320CDE981
:101BA00000040120CDE902040494CDE90540079426
:101BB000694606480894FFF7A6FB099409A903485B
:101BC0000A94FFF7A9FA0CB010BD000054000020E1
:101BD00010B58EB000240794089409940A940B94CD
:101BE0001C2168460C94FEF7B4FA194817490160A5
:101BF0000421C0E901144FF47A71C0E9031484612F
:101C0000FFF7ABFA4FF48050079007A91048FFF791
:101C10000FFB0F48FFF749FD0B940BA90C480C94E0
:101C2000FFF77AFA6020CDE90004029400226946A9
:101C300007480494FFF7D1FC042269460448FFF7E3
:101C4000CCFC0348FFF7A2FC0EB010BD000400401E
:101C50009400002010B586B000241248009401942E
:101C60000294039404940E49059401604AF21041D1
:101C7000C0E901141321C0E903148461FFF76DFA70
:101C80004FF48050009069460648FFF7D1FA04945B
:101C900004A904480594FFF73FFA06B010BD000000
:101CA00000080040D4000020FEE770472DE9FF5FE8
:101CB000274C451ADDE9109AA668E168704205EBE9
:101CC0004000DDF84CB00844FEF7EDFB07468846BF
:101CD0005B4600201F49129AFEF75FFB4A465346B7
:101CE000FEF7E9FA3A464346FEF7E5FA81468A46A8
:101CF000A819FEF7D8FB07468846DDE90E014FF02C
:101D0000FF32FEF7B9FB5B46129AFEF7D4FA3A4669
:101D10004346FEF7D0FA07468846A81BFEF7C3FBEA
:101D2000DDE90223FEF7C7FAD4E90623FEF71CFA21
:101D30003A464346FEF718FA4A465346FEF714FA67
:101D4000C4E90601C4E9025604B0BDE8F09F0000F2
:101D5000000000200000F03F70477047FEF7A0BE73
:101D600030B58FB028216846FEF7F3F914210AA890
:101D7000FEF7EFF901210804CDE9001000240294D8
:101D800002250491CDE907504FF4E0100990684610
:101D9000FFF71CF80F20CDE90A056802CDE90C40D9
:101DA00002210AA80E94FEF725FF0FB030BD0000F7
:101DB0000D48016841F00101016041680B4A114082
:101DC000416001680A4A11400160016821F48021E4
:101DD0000160416821F4FE0141604FF41F01816000
:101DE0000449C00308607047001002400000FFF87B
:101DF000FFFFF6FE08ED00E00148FFF714BB00000E
:101E0000D4000020F0B50268164B174C174D4FF068
:101E10008047984205D0B84203D0A04201D0A842E2
:101E200003D122F070064A683243984205D0B84286
:101E300003D0A04201D0A84203D122F44074CA6862
:101E400022434C6922F08002224302608A68C26207
:101E50000A688262984201D10969016301214161E6
:101E6000F0BD0000002C01400004004000080040CC
:101E700010B501F01F030121046A99408C430462EC
:101E8000016A9A401143016210BD10B5846842EAAC
:101E9000032224F47F440A432243826010BD8268F7
:101EA00022F070020A4342F007018160704700008F
:101EB00030B5026A22F001020262026A4368846954
:101EC00024F073050C682C4322F002058A682A432B
:101ED0000A4DA8420BD122F00805CA6823F44073CA
:101EE0002A434D6922F004021D438B692B43436052
:101EF000846149684163026230BD0000002C0140EA
:101F000030B5026A22F010020262026A43688469F4
:101F10000D6824F4E64444EA05248D6822F020028A
:101F200042EA05120B4DA8420ED1CD6822F0800284
:101F300042EA05124D6923F4406343EA85038D6943
:101F400022F0400243EA850343608461496881636B
:101F5000026230BD002C014030B5026A22F480726A
:101F60000262036A4268C46923F4007324F07305B3
:101F70000C682C438D6843EA05230C4DA8420ED112
:101F8000CD6823F4006343EA05234D6922F44052EF
:101F900042EA05128D6923F4806342EA0512426029
:101FA000C4614968C163036230BD0000002C014078
:101FB00030B5026A22F480520262046A4268C36940
:101FC0000D6823F4E64343EA05238D6824F40054A6
:101FD00044EA0534064DA84204D14D6922F48042FA
:101FE00042EA85124260C36149680164046230BDFF
:101FF000002C014010B5036A046A24F00104046255
:10200000846924F0F00444EA021423F00A020A432B
:102010008461026210BD10B5036A23F010030362ED
:102020008369046A23F4704343EA023224F0A00374
:1020300043EA01118261016210BD70B5446A2068F3
:10204000406994F83910C0F3C0100025212904D14B
:1020500018B1E584204600F046F82068406994F8FD
:102060003A10C0F38010222904D118B1E58520462A
:1020700000F02BF8E06B40F01000E0632046FFF723
:10208000C8FB70BD10B50146406A09680968890639
:1020900013D40021C1850168CA6822F48072CA6025
:1020A00001684A6922F001024A6101684A6922F026
:1020B00040024A61202180F83A10FFF779FC10BDF8
:1020C00010B5406AFFF7F6FC10BD0168CA6822F43B
:1020D0009072CA6001684A6922F001024A612021B7
:1020E00080F83A1070470168CA6822F0C002CA60DE
:1020F000202180F8391070472DE9F041044600682E
:102100000169E26821F44051114301612169A0682D
:102110000843616908432168CA6841F20C639A4325
:102120000243CA6020684169A26921F440711143E9
:1021300041611E49206864253226884202D1FEF79B
:10214000FFFD01E0FEF7ECFD00EBC00101EB00112B
:1021500060686FF018078000B1FBF0F2B2FBF5F297
:10216000B1FBF0F37A4303EB8202B1FBF0F306EB31
:102170000212B2FBF5F2B3FBF5F302F0F00202EB50
:102180000312B1FBF0F3B1FBF0F0B0FBF5F07843D4
:1021900003EB800006EB0010B0FBF5F0216800F0C7
:1021A0000F0010448860BDE8F08100000038014055
:1021B0002DE9F041984617460E460446069D1DE05F
:1021C000681C1BD02DB1FEF765FCA0EB0800A842EF
:1021D00014D92068C16821F4D071C16020684169B8
:1021E00021F001014161202084F8390084F83A008F
:1021F000002084F838000320BDE8F08120680068E2
:1022000036EA000004D00020B842D9D00020F3E71D
:102210000120F9E7FEE700000FB4054B10B503A954
:10222000044A029800F028F810BC5DF814FB000086
:1022300031240008500000200907090E002804DBA3
:1022400000F1E02080F80014704700F00F0000F16A
:10225000E02080F8141D704702E008C8121F08C172
:10226000002AFAD170477047002001E001C1121F17
:10227000002AFBD1704700002DE9FF4F8BB09A4632
:102280000F460546002606E025280BD052460D993C
:1022900090476D1C761C28780028F5D10FB0304689
:1022A000BDE8F08F0024A0460122604900E004430D
:1022B00015F8013F203B02FA03F00842F7D12878D5
:1022C0002E2817D115F8010F44F004042A280ED047
:1022D0006FF02F022878A0F1300109290AD808EB05
:1022E000880102EB410100EB01086D1CF2E757F891
:1022F000048B6D1C287869283ED006DC0028CDD0E0
:1023000063280BD0642804D136E0732810D07528D8
:102310004BD052460D999047761C85E017F8040B78
:102320008DF8000000208DF80100E946012003E04F
:1023300057F8049B4FF0FF3061074FF0000401D4C1
:102340000AE0641C44450DDA8442FADB19F80410F3
:102350000029F6D106E0641C8442FCDB19F8041065
:102360000029F8D1264404E019F8010B52460D99D2
:102370009047641EF8D257E001CF4FF00A0B0028B7
:1023800002DA40422D2102E0210504D52B218DF8EF
:102390002410012103E0E10705D02021F7E70DF12A
:1023A000200908910CE00021F9E701CF4FF00A0B5A
:1023B000F9E75946FEF7A7F801F1300209F8012DB7
:1023C0000028F6D1ADEB090000F1200B600701D425
:1023D0004FF00108D84502DDA8EB0B0000E000201B
:1023E0008046002406E009A85246005D0D999047FA
:1023F000641C761C08988442F5DB04E030205246C9
:102400000D999047761CB8F10001A8F10108F5DCA0
:1024100005E019F8010B52460D999047761CBBF167
:102420000001ABF1010BF4DC6D1C34E7092801005D
:1024300013B54FF6FF73012269460248FFF73BFBD5
:1024400000981CBD140100202DE9F05F0024DFF886
:1024500088B025462646A046032700BF1BF8070084
:102460003038FEF720F881468A4600221B4B204672
:102470002946FDF720FF4A465346FDF775FE7F1CAF
:1024800004460D46082FE9DB5FF009071BF807003B
:102490003038FEF708F881468A4600220F4B304656
:1024A0004146FDF708FF4A465346FDF75DFE7F1C97
:1024B000064688460C2FE9DB0022094BFDF76DFF2D
:1024C00022462B46FDF750FE9BF802202D2A01D113
:1024D00081F00041BDE8F09F54010020000024403D
:1024E00000408F4008B5FEF7E3FAFFF739FC2548B6
:1024F000816941F020018161816901F02001009131
:10250000816941F004018161816901F00401009158
:10251000816941F008018161816901F00801009140
:10252000416941F0010141614069002200F0010070
:10253000009011460D20FEF719FB0D20FEF708FB59
:10254000FFF718FBFFF744FBFFF784FB0F480E492A
:102550000C2201604FF4E131416000218160C160D3
:10256000C0E904128161C161FFF754F907490D22E6
:1025700040310648FFF7D0F904480421C038FEF77F
:1025800037FFFEE700100240004800401401002021
:102590000B4910B500230A68002808DD4FF47A744F
:1025A000A04200DD204653630968886310BD054CD6
:1025B000A04200DA2046404250630868836310BDA1
:1025C0009400002018FCFFFF000000000000000045
:1025D00001020304060708090000000001020304C9
:1025E00000260008000000205400000058220008C7
:1025F00054260008540000207C05000068220008D2
:1026000000000000000000000000000000000000CA
:1026100000000000000000000000000000000000BA
:1026200000000000000000000000000000000000AA
:10263000000000000000000000000000000000009A
:102640000100000010000000000000000024F40061
:042650000000000086
:04000005080000ED02
:00000001FF
